:020000040800F2
:100000000050002059060008F5050008FD0500080D
:10001000050600080D06000815060008000000008F
:100020000000000000000000000000001D060008A5
:1000300029060008000000003506000841060008F7
:10004000A1060008A1060008A1060008A1060008F4
:10005000A1060008A1060008A1060008A1060008E4
:10006000A1060008A1060008A1060008A1060008D4
:10007000A1060008A1060008A1060008A1060008C4
:10008000A1060008A1060008A1060008A1060008B4
:10009000A1060008A1060008A1060008A1060008A4
:1000A000A1060008A1060008A1060008A106000894
:1000B000A1060008A1060008A1060008A106000884
:1000C000A1060008A1060008A1060008A106000874
:1000D000A1060008A1060008A1060008A106000864
:1000E000A1060008A1060008A10600080000000003
:1000F0000000000000000000000000000000000000
:0C01000000000000000000005FF808F1A3
:10010C0010B5054C237833B9044B13B10448AFF345
:10011C0000800123237010BD0C00002000000000A3
:10012C00AC1A000808B5034B1BB103490348AFF3E5
:10013C00008008BD0000000010000020AC1A000870
:10014C0080B586B000AF00F0A7FA00F091F800F08F
:10015C0065F900F0C7F800F013F93F4801F000FA18
:10016C003E4801F0FDF90023FB750023BB7501210E
:10017C003B4800F0ADF90346002B13D1FB7D013356
:10018C005A4203F0030302F0030258BF5342FB75BB
:10019C000123BB7500BF0121314800F06BFD034604
:1001AC00002BF8D0BB7D002BE1D0FB7D012B12D1B5
:1001BC0000237B750BE04FF400512A4800F089FDB9
:1001CC004FF4FA7000F0CAFA7B7D01337B757B7DAE
:1001DC00052BF0D93DE0FB7D022B1BD100233B7599
:1001EC0014E0204BDB681F4A83F40053D36000F00B
:1001FC00ABFA786000BF00F0A7FA02467B68D31A0E
:10020C00B3F57A7FF7D93B7D01333B753B7D052BED
:10021C00E7D91EE0FB7D032B1BD1134BFB600023A6
:10022C00FB7413E0FB681B6883F40052FB681A60D4
:10023C000E4B5B6A7B8100BF0C4B5A6A7B89D31ACD
:10024C00B3F5FA6FF8D9FB7C0133FB74FB7C052BFF
:10025C00E8D90023BB758AE7280000207000002035
:10026C0000080140001001400C1001400004004047
:10027C0080B590B000AF07F1180328220021184672
:10028C0001F0E2FB3B1D00221A605A609A60DA60B2
:10029C001A610123BB614FF48033FB6100237B6344
:1002AC0007F11803184600F02DFD0346002B01D072
:1002BC0000F032F90F237B600123BB600023FB604D
:1002CC0000233B6100237B613B1D0021184600F09D
:1002DC009BFF0346002B01D000F01EF900BF4037F6
:1002EC00BD4680BD80B586B000AF07F10803002283
:1002FC001A605A609A60DA603B4600221A605A60B3
:10030C001E4B4FF080421A601C4B41F63F725A60F4
:10031C001A4B00229A60194B4FF6FF72DA60174B9A
:10032C0000221A61154B00229A61144801F0C8F89A
:10033C000346002B01D000F0EFF84FF48053BB6064
:10034C0007F1080319460D4801F054F90346002B38
:10035C0001D000F0E1F800233B6000237B603B46BA
:10036C001946064801F012FB0346002B01D000F0A1
:10037C00D3F800BF1837BD4680BD00BF2800002051
:10038C0080B586B000AF07F1080300221A605A60EE
:10039C009A60DA603B4600221A605A601D4B1E4A76
:1003AC001A601C4B41F63F725A601A4B00229A603D
:1003BC00184B4FF6FF72DA60164B00221A61154B80
:1003CC0080229A61134801F07BF80346002B01D080
:1003DC0000F0A2F84FF48053BB6007F108031946F4
:1003EC000C4801F007F90346002B01D000F094F8FB
:1003FC0000233B6000237B603B461946054801F017
:10040C00C5FA0346002B01D000F086F800BF183760
:10041C00BD4680BD700000200004004080B588B04F
:10042C0000AF07F1100300221A605A609A60DA607C
:10043C00244B9B69234A43F010039361214B9B6926
:10044C0003F01003FB60FB681E4B9B691D4A43F0D5
:10045C00200393611B4B9B6903F02003BB60BB68BB
:10046C00184B9B69174A43F004039361154B9B6926
:10047C0003F004037B607B6801224FF400511248A7
:10048C0000F00FFC4FF400533B6101237B61002310
:10049C00BB610223FB6107F1100319460A4800F007
:1004AC0065FA01233B6100237B610123BB6107F1EA
:1004BC0010031946054800F059FA00BF2037BD4615
:1004CC0080BD00BF00100240001001400008014038
:1004DC0080B582B000AF78600B467B807B88194674
:1004EC00786800F0C7FB0346002B0ED14FF0804319
:1004FC005A6A084B1B68D31A632B06D94FF08043FA
:10050C005B6A044A1360002300E001231846083795
:10051C00BD4680BDB800002080B400AF72B600BFED
:10052C0000BFFDE780B485B000AF154B9B69144A42
:10053C0043F001039361124B9B6903F00103BB6011
:10054C00BB680F4BDB690E4A43F08053D3610C4BF5
:10055C00DB6903F080537B607B680A4B5B68FB6054
:10056C00FB6823F0E063FB60FB6843F00073FB6007
:10057C00044AFB68536000BF1437BD4680BC70470B
:10058C00001002400000014080B485B000AF7860DC
:10059C007B681B68B3F1804F0CD1114BDB69104A9F
:1005AC0043F00103D3610E4BDB6903F00103FB60E5
:1005BC00FB6810E07B681B680A4A93420BD1084B1E
:1005CC00DB69074A43F00203D361054BDB6903F097
:1005DC000203BB60BB6800BF1437BD4680BC7047CC
:1005EC00001002400004004080B400AF00BFFDE7E3
:1005FC0080B400AF00BFFDE780B400AF00BFFDE7E3
:10060C0080B400AF00BFFDE780B400AF00BFFDE7D2
:10061C0080B400AF00BFBD4680BC704780B400AF53
:10062C0000BFBD4680BC704780B400AF00BFBD4664
:10063C0080BC704780B500AF00F074F800BF80BD7F
:10064C0080B400AF00BFBD4680BC7047FFF7F8FF19
:10065C000B480C490C4A002302E0D458C450043314
:10066C00C4188C42F9D3094A094C002301E01360E9
:10067C000432A242FBD301F0EFF9FFF761FD7047A2
:10068C00000000200C000020F01A00080C000020D4
:10069C00C0000020FEE7000080B500AF084B1B68CF
:1006AC00074A43F010031360032000F02BF90F20CE
:1006BC0000F008F8FFF736FF0023184680BD00BF96
:1006CC000020024080B582B000AF7860124B1A68EF
:1006DC00124B1B7819464FF47A73B3FBF1F3B2FB50
:1006EC00F3F3184600F035F90346002B01D0012333
:1006FC000EE07B680F2B0AD8002279684FF0FF3090
:10070C0000F00BF9064A7B681360002300E001231C
:10071C0018460837BD4680BD0000002008000020A8
:10072C000400002080B400AF054B1B781A46054B23
:10073C001B681344034A136000BFBD4680BC70475E
:10074C0008000020BC00002080B400AF024B1B68E6
:10075C001846BD4680BC7047BC00002080B584B0F4
:10076C0000AF7860FFF7F0FFB8607B68FB60FB6858
:10077C00B3F1FF3F05D00A4B1B781A46FB681344B4
:10078C00FB6000BFFFF7E0FF0246BB68D31AFA68B4
:10079C009A42F7D800BF00BF1037BD4680BD00BFDE
:1007AC000800002080B485B000AF78607B6803F04F
:1007BC000703FB600C4BDB68BB60BA684FF6FF03AA
:1007CC001340BB60FB681A02BB68134343F0BF6362
:1007DC0043F40033BB60044ABB68D36000BF1437DA
:1007EC00BD4680BC704700BF00ED00E080B400AF98
:1007FC00044BDB681B0A03F007031846BD4680BC9C
:10080C00704700BF00ED00E080B483B000AF03463A
:10081C003960FB7197F90730002B0ADB3B68DAB2C1
:10082C000C4997F907301201D2B20B4483F800231C
:10083C000AE03B68DAB20849FB7903F00F03043B8A
:10084C001201D2B20B441A7600BF0C37BD4680BCE5
:10085C00704700BF00E100E000ED00E080B489B01B
:10086C0000AFF860B9607A60FB6803F00703FB61C6
:10087C00FB69C3F10703042B28BF0423BB61FB698D
:10088C000433062B02D9FB69033B00E000237B6198
:10089C004FF0FF32BB6902FA03F3DA43BB681A402C
:1008AC007B699A404FF0FF317B6901FA03F3D9431E
:1008BC007B680B40134318462437BD4680BC7047F9
:1008CC0080B582B000AF78607B68013BB3F1807F6C
:1008DC0001D301230FE00A4A7B68013B53600F21CF
:1008EC004FF0FF30FFF790FF054B00229A60044B4E
:1008FC0007221A60002318460837BD4680BD00BF8A
:10090C0010E000E080B582B000AF78607868FFF747
:10091C0049FF00BF0837BD4680BD80B586B000AF2B
:10092C000346B9607A60FB7300237B61FFF75EFFBF
:10093C0078617A68B9687869FFF790FF024697F991
:10094C000F3011461846FFF75FFF00BF1837BD4642
:10095C0080BD80B582B000AF78607868FFF7B0FFDB
:10096C00034618460837BD4680BD000080B48BB0E6
:10097C0000AF7860396000237B6200233B6269E141
:10098C0001227B6A02FA03F3FB613B681B68FA697C
:10099C001340BB61BA69FB699A4240F058813B68CD
:1009AC005B689A4A93425ED0984A934275D8984AAB
:1009BC00934258D0964A93426FD8964A934252D05B
:1009CC00944A934269D8944A93424CD0924A9342A7
:1009DC0063D8924A934246D0904A93425DD8122BE8
:1009EC002AD8122B59D801A252F823F0730A000806
:1009FC004D0A00085F0A0008A10A0008A70A0008AF
:100A0C00A70A0008A70A0008A70A0008A70A0008F6
:100A1C00A70A0008A70A0008A70A0008A70A0008E6
:100A2C00A70A0008A70A0008A70A0008A70A0008D6
:100A3C00550A0008690A0008794A934213D02CE041
:100A4C003B68DB683B6229E03B68DB6804333B6254
:100A5C0024E03B68DB6808333B621FE03B68DB68E3
:100A6C000C333B621AE03B689B68002B02D10423D9
:100A7C003B6213E03B689B68012B05D108233B626A
:100A8C007B68FA691A6109E008233B627B68FA69A2
:100A9C005A6103E000233B6200E000BFBB69FF2BFF
:100AAC0001D87B6801E07B6804337B61BB69FF2B59
:100ABC0002D87B6A9B0002E07B6A083B9B003B618F
:100ACC007B691A680F213B6901FA03F3DB431A4077
:100ADC00396A3B6901FA03F31A437B691A603B6874
:100AEC005B6803F08053002B00F0B1804D4B9B6989
:100AFC004C4A43F0010393614A4B9B6903F0010399
:100B0C00BB60BB68484A7B6A9B08023352F82330AF
:100B1C00FB607B6A03F003039B000F2202FA03F3D2
:100B2C00DB43FA681340FB607B68404A934213D066
:100B3C007B683F4A93420DD07B683E4A934207D074
:100B4C007B683D4A934201D1032306E0042304E071
:100B5C00022302E0012300E000237A6A02F0030280
:100B6C0092009340FA681343FB602F497B6A9B0801
:100B7C000233FA6841F823203B685B6803F4801366
:100B8C00002B06D02D4B9A682C49BB6913438B6004
:100B9C0006E02A4B9A68BB69DB43284913408B60FB
:100BAC003B685B6803F40013002B06D0234BDA6818
:100BBC002249BB691343CB6006E0204BDA68BB6962
:100BCC00DB431E491340CB603B685B6803F4003386
:100BDC00002B06D0194B5A681849BB6913434B605C
:100BEC0006E0164B5A68BB69DB43144913404B6053
:100BFC003B685B6803F48033002B21D00F4B1A68E1
:100C0C000E49BB6913430B6021E000BF000032109A
:100C1C000000311000002210000021100000121002
:100C2C0000001110001002400000014000080140BB
:100C3C00000C014000100140001401400004014070
:100C4C000B4B1A68BB69DB43094913400B607B6A89
:100C5C0001337B623B681A687B6A22FA03F3002B30
:100C6C007FF48EAE00BF00BF2C37BD4680BC7047F2
:100C7C000004014080B485B000AF78600B467B80E7
:100C8C007B689A687B881340002B02D00123FB738E
:100C9C0001E00023FB73FB7B18461437BD4680BC78
:100CAC00704780B483B000AF78600B467B801346EE
:100CBC007B707B78002B03D07A887B681A6103E009
:100CCC007B881A047B681A6100BF0C37BD4680BC58
:100CDC00704780B485B000AF78600B467B807B6832
:100CEC00DB68FB607A88FB6813401A04FB68D94305
:100CFC007B880B401A437B681A6100BF1437BD46D2
:100D0C0080BC704780B586B000AF78607B68002BE4
:100D1C0001D1012372E27B681B6803F00103002BF5
:100D2C0000F08780924B5B6803F00C03042B0CD013
:100D3C008F4B5B6803F00C03082B12D18C4B5B6858
:100D4C0003F48033B3F5803F0BD1894B1B6803F45C
:100D5C000033002B6CD07B685B68002B68D10123BF
:100D6C004CE27B685B68B3F5803F06D1804B1B6817
:100D7C007F4A43F4803313602EE07B685B68002B62
:100D8C000CD17B4B1B687A4A23F480331360784B6D
:100D9C001B68774A23F4802313601DE07B685B6833
:100DAC00B3F5A02F0CD1724B1B68714A43F480230E
:100DBC0013606F4B1B686E4A43F4803313600BE077
:100DCC006B4B1B686A4A23F480331360684B1B68B7
:100DDC00674A23F4802313607B685B68002B13D075
:100DEC00FFF7B2FC386108E0FFF7AEFC02463B6946
:100DFC00D31A642B01D9032300E25D4B1B6803F467
:100E0C000033002BF0D014E0FFF79EFC386108E0B3
:100E1C00FFF79AFC02463B69D31A642B01D90323D2
:100E2C00ECE1534B1B6803F40033002BF0D100E0D2
:100E3C0000BF7B681B6803F00203002B63D04C4B94
:100E4C005B6803F00C03002B0BD0494B5B6803F081
:100E5C000C03082B1CD1464B5B6803F48033002B2E
:100E6C0016D1434B1B6803F00203002B05D07B68A3
:100E7C001B69012B01D00123C0E13D4B1B6823F002
:100E8C00F8027B685B69DB00394913430B603AE07D
:100E9C007B681B69002B20D0364B01221A60FFF7B0
:100EAC0053FC386108E0FFF74FFC02463B69D31A4C
:100EBC00022B01D90323A1E12D4B1B6803F0020384
:100ECC00002BF0D02A4B1B6823F0F8027B685B697F
:100EDC00DB00274913430B6015E0264B00221A60F8
:100EEC00FFF732FC386108E0FFF72EFC02463B6945
:100EFC00D31A022B01D9032380E11D4B1B6803F08D
:100F0C000203002BF0D17B681B6803F00803002B55
:100F1C003AD07B689B69002B19D0174B01221A60C1
:100F2C00FFF712FC386108E0FFF70EFC02463B6944
:100F3C00D31A022B01D9032360E10D4B5B6A03F03A
:100F4C000203002BF0D0012000F09CFA1CE00A4BAD
:100F5C0000221A60FFF7F8FB38610FE0FFF7F4FB93
:100F6C0002463B69D31A022B08D9032346E100BF82
:100F7C00001002400000424280044242924B5B6AE5
:100F8C0003F00203002BE9D17B681B6803F0040318
:100F9C00002B00F0A6800023FB758B4BDB6903F064
:100FAC008053002B0DD1884BDB69874A43F080536B
:100FBC00D361854BDB6903F08053BB60BB680123B5
:100FCC00FB75824B1B6803F48073002B18D17F4B8D
:100FDC001B687E4A43F480731360FFF7B5FB3861DE
:100FEC0008E0FFF7B1FB02463B69D31A642B01D929
:100FFC00032303E1754B1B6803F48073002BF0D0C3
:10100C007B68DB68012B06D16F4B1B6A6E4A43F081
:10101C00010313622DE07B68DB68002B0CD16A4B5B
:10102C001B6A694A23F001031362674B1B6A664A09
:10103C0023F0040313621CE07B68DB68052B0CD1E6
:10104C00614B1B6A604A43F0040313625E4B1B6ADC
:10105C005D4A43F0010313620BE05B4B1B6A5A4A77
:10106C0023F001031362584B1B6A574A23F0040305
:10107C0013627B68DB68002B15D0FFF765FB3861CA
:10108C000AE0FFF761FB02463B69D31A41F2883252
:10109C00934201D90323B1E04B4B1B6A03F00203CB
:1010AC00002BEED014E0FFF74FFB38610AE0FFF79E
:1010BC004BFB02463B69D31A41F28832934201D969
:1010CC0003239BE0404B1B6A03F00203002BEED181
:1010DC00FB7D012B05D13C4BDB693B4A23F0805354
:1010EC00D3617B68DB69002B00F08780364B5B6833
:1010FC0003F00C03082B61D07B68DB69022B46D113
:10110C00334B00221A60FFF71FFB386108E0FFF732
:10111C001BFB02463B69D31A022B01D903236DE05A
:10112C00294B1B6803F00073002BF0D17B681B6A02
:10113C00B3F5803F08D1244B5B6823F400327B6805
:10114C009B68214913434B601F4B5B6823F474125B
:10115C007B68196A7B685B6A0B431B4913434B60C2
:10116C001B4B01221A60FFF7EFFA386108E0FFF71A
:10117C00EBFA02463B69D31A022B01D903233DE05B
:10118C00114B1B6803F00073002BF0D035E0104BB3
:10119C0000221A60FFF7D8FA386108E0FFF7D4FA9A
:1011AC0002463B69D31A022B01D9032326E0064BD6
:1011BC001B6803F00073002BF0D11EE07B68DB6929
:1011CC00012B07D1012319E00010024000700040F0
:1011DC00600042420B4B5B68FB60FB6803F480329F
:1011EC007B681B6A9A4206D1FB6803F470127B6819
:1011FC005B6A9A4201D0012300E00023184618379D
:10120C00BD4680BD0010024080B584B000AF786050
:10121C0039607B68002B01D10123D0E06A4B1B683D
:10122C0003F007033A689A4210D9674B1B6823F006
:10123C00070265493B6813430B60634B1B6803F063
:10124C0007033A689A4201D00123B8E07B681B6817
:10125C0003F00203002B20D07B681B6803F004030F
:10126C00002B05D0594B5B68584A43F4E06353603C
:10127C007B681B6803F00803002B05D0534B5B689D
:10128C00524A43F460535360504B5B6823F0F002B6
:10129C007B689B684D4913434B607B681B6803F06C
:1012AC000103002B40D07B685B68012B07D1474BB7
:1012BC001B6803F40033002B15D101237FE07B68FE
:1012CC005B68022B07D1414B1B6803F00073002BAA
:1012DC0009D1012373E03D4B1B6803F00203002B83
:1012EC0001D101236BE0394B5B6823F003027B686F
:1012FC005B68364913434B60FFF726FAF8600AE047
:10130C00FFF722FA0246FB68D31A41F28832934265
:10131C0001D9032353E02D4B5B6803F00C027B686F
:10132C005B689B009A42EBD1274B1B6803F00703C9
:10133C003A689A4210D2244B1B6823F007022249C8
:10134C003B6813430B60204B1B6803F007033A68A0
:10135C009A4201D0012332E07B681B6803F004033E
:10136C00002B08D0194B5B6823F4E0627B68DB68C8
:10137C00164913434B607B681B6803F00803002B72
:10138C0009D0124B5B6823F460527B681B69DB004D
:10139C000E4913434B6000F021F802460B4B5B687F
:1013AC001B0903F00F030A49CB5C22FA03F3094A29
:1013BC001360094B1B681846FFF784F90023184685
:1013CC001037BD4680BD00BF002002400010024017
:1013DC00C41A0008000000200400002080B487B06C
:1013EC0000AF0023FB600023BB6000237B61002364
:1013FC007B6000233B611E4B5B68FB60FB6803F06A
:10140C000C03042B02D0082B03D027E0194B3B61B3
:10141C0027E0FB689B0C03F00F03174AD35C7B603F
:10142C00FB6803F48033002B10D0114B5B685B0C12
:10143C0003F00103114AD35CBB607B680D4A03FBCC
:10144C0002F2BB68B2FBF3F37B6104E07B680C4AED
:10145C0002FB03F37B617B693B6102E0054B3B6163
:10146C0000BF3B6918461C37BD4680BC704700BFA7
:10147C000010024000127A00D41A0008E41A000886
:10148C0000093D0080B485B000AF78600A4B1B6842
:10149C000A4AA2FB03235B0A7A6802FB03F3FB6094
:1014AC0000BFFB685A1EFA60002BF9D100BF00BFC9
:1014BC001437BD4680BC704700000020D34D62102D
:1014CC0080B582B000AF78607B68002B01D101231E
:1014DC0041E07B6893F83D30DBB2002B06D17B6892
:1014EC00002283F83C207868FFF74EF87B680222D4
:1014FC0083F83D207B681A687B68043319461046D4
:10150C0000F040F97B68012283F846207B680122B9
:10151C0083F83E207B68012283F83F207B68012200
:10152C0083F840207B68012283F841207B680122EC
:10153C0083F842207B68012283F843207B680122D8
:10154C0083F844207B68012283F845207B680122C4
:10155C0083F83D20002318460837BD4680BD0000A7
:10156C0080B485B000AF78607B6893F83D30DBB217
:10157C00012B01D0012332E07B68022283F83D204D
:10158C007B681B68184A93420ED07B681B68B3F1CA
:10159C00804F09D07B681B68144A934204D07B6847
:1015AC001B68134A934211D17B681B689B6803F03C
:1015BC000703FB60FB68062B10D07B681B681A685E
:1015CC007B681B6842F001021A6007E07B681B68AD
:1015DC001A687B681B6842F001021A6000231846E7
:1015EC001437BD4680BC7047002C014000040040FD
:1015FC000008004080B584B000AF786039600023EB
:10160C00FB737B6893F83C30012B01D10223B4E0CF
:10161C007B68012283F83C207B68022283F83D2002
:10162C007B681B689B68BB60BB6823F07703BB605F
:10163C00BB6823F47F43BB607B681B68BA689A6005
:10164C003B681B68B3F5005F3ED0B3F5005F00F25A
:10165C008780B3F5805F00F08680B3F5805F7FD81C
:10166C00702B1AD0702B7BD8602B50D0602B77D876
:10167C00502B3CD0502B73D8402B58D0402B6FD8CC
:10168C00302B64D0302B6BD8202B60D0202B67D81C
:10169C00002B5CD0102B5AD062E07B6818683B683A
:1016AC0099683B685A683B68DB6800F050F97B68C6
:1016BC001B689B68BB60BB6843F07703BB607B68AF
:1016CC001B68BA689A604FE07B6818683B68996839
:1016DC003B685A683B68DB6800F039F97B681B682B
:1016EC009A687B681B6842F480429A603CE07B6895
:1016FC0018683B6859683B68DB681A4600F0B0F81C
:10170C007B681B685021184600F007F92CE07B68B9
:10171C0018683B6859683B68DB681A4600F0CEF8DD
:10172C007B681B686021184600F0F7F81CE07B68AA
:10173C0018683B6859683B68DB681A4600F090F8FB
:10174C007B681B684021184600F0E7F80CE07B68CA
:10175C001A683B681B681946104600F0DEF803E077
:10176C000123FB7300E000BF7B68012283F83D205E
:10177C007B68002283F83C20FB7B18461037BD4663
:10178C0080BD000080B485B000AF786039607B68A4
:10179C001B68FB607B682F4A93420BD07B68B3F1CC
:1017AC00804F07D07B682C4A934203D07B682B4A2E
:1017BC00934208D1FB6823F07003FB603B685B68C5
:1017CC00FA681343FB607B68224A93420BD07B6818
:1017DC00B3F1804F07D07B681F4A934203D07B68DC
:1017EC001E4A934208D1FB6823F44073FB603B68AC
:1017FC00DB68FA681343FB60FB6823F080023B68EC
:10180C005B691343FB607B68FA681A603B689A68F3
:10181C007B68DA623B681A687B689A627B680D4A5F
:10182C00934203D13B681A697B681A637B68012277
:10183C005A617B681B6903F00103002B05D07B68A0
:10184C001B6923F001027B681A6100BF1437BD4687
:10185C0080BC7047002C0140000400400008004090
:10186C0080B487B000AFF860B9607A60FB681B6A1F
:10187C007B61FB681B6A23F00102FB681A62FB6840
:10188C009B693B613B6923F0F0033B617B681B0167
:10189C003A6913433B617B6923F00A037B617A69E4
:1018AC00BB6813437B61FB683A699A61FB687A6990
:1018BC001A6200BF1C37BD4680BC704780B487B02D
:1018CC0000AFF860B9607A60FB681B6A7B61FB68EB
:1018DC001B6A23F01002FB681A62FB689B693B6170
:1018EC003B6923F470433B617B681B033A691343E8
:1018FC003B617B6923F0A0037B61BB681B017A69A8
:10190C0013437B61FB683A699A61FB687A691A62D6
:10191C0000BF1C37BD4680BC704780B485B000AF9B
:10192C00786039607B689B68FB60FB6823F0700310
:10193C00FB603A68FB68134343F00703FB607B686A
:10194C00FA689A6000BF1437BD4680BC704780B4FB
:10195C0087B000AFF860B9607A603B60FB689B6849
:10196C007B617B6923F47F437B613B681A027B6854
:10197C001A43BB6813437A6913437B61FB687A692A
:10198C009A6000BF1C37BD4680BC704780B485B0E0
:10199C0000AF786039607B6893F83C30012B01D143
:1019AC00022346E07B68012283F83C207B680222FC
:1019BC0083F83D207B681B685B68FB607B681B6859
:1019CC009B68BB60FB6823F07003FB603B681B6883
:1019DC00FA681343FB607B681B68FA685A607B6883
:1019EC001B68164A93420ED07B681B68B3F1804F7C
:1019FC0009D07B681B68124A934204D07B681B6831
:101A0C00104A93420CD1BB6823F08003BB603B6847
:101A1C005B68BA681343BB607B681B68BA689A60E2
:101A2C007B68012283F83D207B68002283F83C20F0
:101A3C00002318461437BD4680BC7047002C01406B
:101A4C00000400400008004003460244934200D1C9
:101A5C00704703F8011BF9E770B500260C4D0D4CCF
:101A6C00641BA410A64209D100F01AF800260A4DF6
:101A7C000A4C641BA410A64205D170BD55F8043B5A
:101A8C0098470136EEE755F8043B98470136F2E7E4
:101A9C00E81A0008E81A0008E81A0008EC1A00080E
:101AAC00F8B500BFF8BC08BC9E467047F8B500BF3F
:081ABC00F8BC08BC9E4670470F
:101AC40000000000000000000102030406070809EA
:101AD40002030405060708090A0B0C0D0E0F10106B
:041AE40001020000FB
:041AE80031010008C0
:041AEC000D010008E0
:0C1AF00000127A0010000000010000004D
:040000050800065990
:00000001FF
